{
  "contractName": "ParkingSystem",
  "abi": [
    {
      "anonymous": false,
      "inputs": [
        {
          "indexed": false,
          "internalType": "uint256",
          "name": "reservationId",
          "type": "uint256"
        },
        {
          "indexed": false,
          "internalType": "bool",
          "name": "completed",
          "type": "bool"
        },
        {
          "indexed": false,
          "internalType": "uint256",
          "name": "rating",
          "type": "uint256"
        },
        {
          "indexed": false,
          "internalType": "string",
          "name": "comments",
          "type": "string"
        }
      ],
      "name": "ReservationCompleted",
      "type": "event"
    },
    {
      "anonymous": false,
      "inputs": [
        {
          "indexed": false,
          "internalType": "uint256",
          "name": "reservationId",
          "type": "uint256"
        },
        {
          "indexed": false,
          "internalType": "uint256",
          "name": "startDate",
          "type": "uint256"
        },
        {
          "indexed": false,
          "internalType": "uint256",
          "name": "endDate",
          "type": "uint256"
        },
        {
          "indexed": false,
          "internalType": "address",
          "name": "userAccount",
          "type": "address"
        },
        {
          "indexed": false,
          "internalType": "uint256",
          "name": "parkingLevelNum",
          "type": "uint256"
        },
        {
          "indexed": false,
          "internalType": "uint256",
          "name": "parkingSpaceNum",
          "type": "uint256"
        },
        {
          "indexed": false,
          "internalType": "bool",
          "name": "completed",
          "type": "bool"
        },
        {
          "indexed": false,
          "internalType": "address",
          "name": "sender",
          "type": "address"
        }
      ],
      "name": "ReservationCreated",
      "type": "event"
    },
    {
      "constant": true,
      "inputs": [],
      "name": "reservationCount",
      "outputs": [
        {
          "internalType": "uint256",
          "name": "",
          "type": "uint256"
        }
      ],
      "payable": false,
      "stateMutability": "view",
      "type": "function"
    },
    {
      "constant": true,
      "inputs": [
        {
          "internalType": "uint256",
          "name": "",
          "type": "uint256"
        }
      ],
      "name": "reservations",
      "outputs": [
        {
          "internalType": "uint256",
          "name": "reservationId",
          "type": "uint256"
        },
        {
          "internalType": "uint256",
          "name": "startDate",
          "type": "uint256"
        },
        {
          "internalType": "uint256",
          "name": "endDate",
          "type": "uint256"
        },
        {
          "internalType": "address",
          "name": "userAccount",
          "type": "address"
        },
        {
          "internalType": "uint256",
          "name": "parkingLevelNum",
          "type": "uint256"
        },
        {
          "internalType": "uint256",
          "name": "parkingSpaceNum",
          "type": "uint256"
        },
        {
          "internalType": "bool",
          "name": "completed",
          "type": "bool"
        },
        {
          "internalType": "uint256",
          "name": "rating",
          "type": "uint256"
        },
        {
          "internalType": "string",
          "name": "comments",
          "type": "string"
        }
      ],
      "payable": false,
      "stateMutability": "view",
      "type": "function"
    },
    {
      "constant": false,
      "inputs": [
        {
          "internalType": "uint256",
          "name": "_startDate",
          "type": "uint256"
        },
        {
          "internalType": "uint256",
          "name": "_endDate",
          "type": "uint256"
        },
        {
          "internalType": "uint256",
          "name": "_parkingLevelNum",
          "type": "uint256"
        },
        {
          "internalType": "uint256",
          "name": "_parkingSpaceNum",
          "type": "uint256"
        }
      ],
      "name": "createReservation",
      "outputs": [],
      "payable": false,
      "stateMutability": "nonpayable",
      "type": "function"
    },
    {
      "constant": false,
      "inputs": [
        {
          "internalType": "uint256",
          "name": "_id",
          "type": "uint256"
        },
        {
          "internalType": "uint256",
          "name": "_rating",
          "type": "uint256"
        },
        {
          "internalType": "string",
          "name": "_comments",
          "type": "string"
        }
      ],
      "name": "toggleCompleted",
      "outputs": [],
      "payable": false,
      "stateMutability": "nonpayable",
      "type": "function"
    }
  ],
  "bytecode": "0x60806040526000805534801561001457600080fd5b50610a53806100246000396000f3fe608060405234801561001057600080fd5b506004361061004c5760003560e01c8063067cf83214610051578063516fdbd114610160578063a14017551461022f578063e84f756e1461027b575b600080fd5b61007d6004803603602081101561006757600080fd5b8101908080359060200190929190505050610299565b604051808a81526020018981526020018881526020018773ffffffffffffffffffffffffffffffffffffffff1673ffffffffffffffffffffffffffffffffffffffff1681526020018681526020018581526020018415151515815260200183815260200180602001828103825283818151815260200191508051906020019080838360005b8381101561011d578082015181840152602081019050610102565b50505050905090810190601f16801561014a5780820380516001836020036101000a031916815260200191505b509a505050505050505050505060405180910390f35b61022d6004803603606081101561017657600080fd5b810190808035906020019092919080359060200190929190803590602001906401000000008111156101a757600080fd5b8201836020820111156101b957600080fd5b803590602001918460018302840111640100000000831117156101db57600080fd5b91908080601f016020809104026020016040519081016040528093929190818152602001838380828437600081840152601f19601f8201169050808301925050505050505091929192905050506103ac565b005b6102796004803603608081101561024557600080fd5b81019080803590602001909291908035906020019092919080359060200190929190803590602001909291905050506106e7565b005b61028361090f565b6040518082815260200191505060405180910390f35b60016020528060005260406000206000915090508060000154908060010154908060020154908060030160009054906101000a900473ffffffffffffffffffffffffffffffffffffffff16908060040154908060050154908060060160009054906101000a900460ff1690806007015490806008018054600181600116156101000203166002900480601f0160208091040260200160405190810160405280929190818152602001828054600181600116156101000203166002900480156103a25780601f10610377576101008083540402835291602001916103a2565b820191906000526020600020905b81548152906001019060200180831161038557829003601f168201915b5050505050905089565b6103b4610915565b60016000858152602001908152602001600020604051806101200160405290816000820154815260200160018201548152602001600282015481526020016003820160009054906101000a900473ffffffffffffffffffffffffffffffffffffffff1673ffffffffffffffffffffffffffffffffffffffff1673ffffffffffffffffffffffffffffffffffffffff16815260200160048201548152602001600582015481526020016006820160009054906101000a900460ff1615151515815260200160078201548152602001600882018054600181600116156101000203166002900480601f0160208091040260200160405190810160405280929190818152602001828054600181600116156101000203166002900480156105195780601f106104ee57610100808354040283529160200191610519565b820191906000526020600020905b8154815290600101906020018083116104fc57829003601f168201915b50505050508152505090508060c00151158160c0019015159081151581525050828160e001818152505081816101000181905250806001600086815260200190815260200160002060008201518160000155602082015181600101556040820151816002015560608201518160030160006101000a81548173ffffffffffffffffffffffffffffffffffffffff021916908373ffffffffffffffffffffffffffffffffffffffff1602179055506080820151816004015560a0820151816005015560c08201518160060160006101000a81548160ff02191690831515021790555060e08201518160070155610100820151816008019080519060200190610621929190610979565b509050507f229bc167d7d0cdd228ae94a9af11c2d2d37a1070efbaee1e72e0d5c5c5baccb6848260c001518585604051808581526020018415151515815260200183815260200180602001828103825283818151815260200191508051906020019080838360005b838110156106a4578082015181840152602081019050610689565b50505050905090810190601f1680156106d15780820380516001836020036101000a031916815260200191505b509550505050505060405180910390a150505050565b600080815480929190600101919050555060405180610120016040528060005481526020018581526020018481526020013373ffffffffffffffffffffffffffffffffffffffff1681526020018381526020018281526020016000151581526020016000815260200160405180602001604052806000815250815250600160008054815260200190815260200160002060008201518160000155602082015181600101556040820151816002015560608201518160030160006101000a81548173ffffffffffffffffffffffffffffffffffffffff021916908373ffffffffffffffffffffffffffffffffffffffff1602179055506080820151816004015560a0820151816005015560c08201518160060160006101000a81548160ff02191690831515021790555060e08201518160070155610100820151816008019080519060200190610837929190610979565b509050507ff2c6f419935b49bed39e8cf159bc398f818c2731f99cab448085b666a08b4e566000548585338686600033604051808981526020018881526020018781526020018673ffffffffffffffffffffffffffffffffffffffff1673ffffffffffffffffffffffffffffffffffffffff168152602001858152602001848152602001831515151581526020018273ffffffffffffffffffffffffffffffffffffffff1673ffffffffffffffffffffffffffffffffffffffff1681526020019850505050505050505060405180910390a150505050565b60005481565b604051806101200160405280600081526020016000815260200160008152602001600073ffffffffffffffffffffffffffffffffffffffff168152602001600081526020016000815260200160001515815260200160008152602001606081525090565b828054600181600116156101000203166002900490600052602060002090601f016020900481019282601f106109ba57805160ff19168380011785556109e8565b828001600101855582156109e8579182015b828111156109e75782518255916020019190600101906109cc565b5b5090506109f591906109f9565b5090565b610a1b91905b80821115610a175760008160009055506001016109ff565b5090565b9056fea265627a7a7231582039258bcfa03640fd114ab0a2ae273facec0a304dddb78323421d6b88d07effcf64736f6c63430005100032",
  "source": "// SPDX-License-Identifier: MIT \npragma solidity ^0.5.0;\n\ncontract ParkingSystem {\n    uint public reservationCount = 0; //unique for each parking reservations;\n\n    struct Reservation{\n        uint reservationId;\n\n        uint startDate;\n        uint endDate;\n        address userAccount;\n\n        uint parkingLevelNum;\n        uint parkingSpaceNum;\n\n        bool completed;\n        uint rating;\n        string comments;\n    }\n\n    struct Client{\n        uint userID;\n        uint points;\n    }\n\n    mapping(uint => Reservation) public reservations;\n\n    //print reservation to user when created\n    event ReservationCreated(\n        uint reservationId,\n        uint startDate,\n        uint endDate,\n        address userAccount,\n        uint parkingLevelNum,\n        uint parkingSpaceNum,\n        bool completed, address sender);\n\n    //print details to user when reservation marked as completed\n    event ReservationCompleted(uint reservationId, bool completed, uint rating, string comments);\n\n    function createReservation(\n        uint _startDate,\n        uint _endDate,\n        uint _parkingLevelNum,\n        uint _parkingSpaceNum) public{\n        reservationCount++;\n        reservations[reservationCount] = Reservation(reservationCount, _startDate, _endDate,  msg.sender, _parkingLevelNum, _parkingSpaceNum, false, 0, \"\");\n        emit ReservationCreated(reservationCount, _startDate, _endDate, msg.sender, _parkingLevelNum, _parkingSpaceNum, false, msg.sender);\n    }\n\n    function toggleCompleted(uint _id, uint _rating, string memory _comments) public {\n        Reservation memory _reservation = reservations[_id];\n        _reservation.completed = !_reservation.completed;\n        _reservation.rating = _rating;\n        _reservation.comments = _comments;\n        reservations[_id] = _reservation;\n        emit ReservationCompleted(_id, _reservation.completed, _rating, _comments);\n    }\n}",
  "sourcePath": "/home/deepesh/Documents/GitHub/Blockchain-Parking-System/contracts/ParkingSystem.sol",
  "compiler": {
    "name": "solc",
    "version": "0.5.16+commit.9c3226ce.Emscripten.clang"
  },
  "schemaVersion": "3.4.16",
  "updatedAt": "2024-08-08T12:31:48.201Z",
  "networkType": "ethereum",
  "devdoc": {
    "methods": {}
  },
  "userdoc": {
    "methods": {}
  }
}