{
  "contractName": "ParkingSystem",
  "abi": [
    {
      "anonymous": false,
      "inputs": [
        {
          "indexed": false,
          "internalType": "uint256",
          "name": "reservationId",
          "type": "uint256"
        },
        {
          "indexed": false,
          "internalType": "bool",
          "name": "completed",
          "type": "bool"
        }
      ],
      "name": "ReservationCompleted",
      "type": "event"
    },
    {
      "anonymous": false,
      "inputs": [
        {
          "indexed": false,
          "internalType": "uint256",
          "name": "reservationId",
          "type": "uint256"
        },
        {
          "indexed": false,
          "internalType": "uint256",
          "name": "startDate",
          "type": "uint256"
        },
        {
          "indexed": false,
          "internalType": "uint256",
          "name": "endDate",
          "type": "uint256"
        },
        {
          "indexed": false,
          "internalType": "address",
          "name": "userId",
          "type": "address"
        },
        {
          "indexed": false,
          "internalType": "uint256",
          "name": "parkingSpaceNum",
          "type": "uint256"
        },
        {
          "indexed": false,
          "internalType": "bool",
          "name": "completed",
          "type": "bool"
        }
      ],
      "name": "ReservationCreated",
      "type": "event"
    },
    {
      "constant": true,
      "inputs": [
        {
          "internalType": "address",
          "name": "",
          "type": "address"
        }
      ],
      "name": "clients",
      "outputs": [
        {
          "internalType": "address",
          "name": "userId",
          "type": "address"
        },
        {
          "internalType": "uint256",
          "name": "points",
          "type": "uint256"
        }
      ],
      "payable": false,
      "stateMutability": "view",
      "type": "function"
    },
    {
      "constant": true,
      "inputs": [],
      "name": "ratingCount",
      "outputs": [
        {
          "internalType": "uint256",
          "name": "",
          "type": "uint256"
        }
      ],
      "payable": false,
      "stateMutability": "view",
      "type": "function"
    },
    {
      "constant": true,
      "inputs": [
        {
          "internalType": "uint256",
          "name": "",
          "type": "uint256"
        }
      ],
      "name": "ratings",
      "outputs": [
        {
          "internalType": "uint256",
          "name": "ratingId",
          "type": "uint256"
        },
        {
          "internalType": "address",
          "name": "userId",
          "type": "address"
        },
        {
          "internalType": "uint256",
          "name": "parkingSpaceNum",
          "type": "uint256"
        },
        {
          "internalType": "uint256",
          "name": "rating",
          "type": "uint256"
        },
        {
          "internalType": "string",
          "name": "comments",
          "type": "string"
        }
      ],
      "payable": false,
      "stateMutability": "view",
      "type": "function"
    },
    {
      "constant": true,
      "inputs": [],
      "name": "reservationCount",
      "outputs": [
        {
          "internalType": "uint256",
          "name": "",
          "type": "uint256"
        }
      ],
      "payable": false,
      "stateMutability": "view",
      "type": "function"
    },
    {
      "constant": true,
      "inputs": [
        {
          "internalType": "uint256",
          "name": "",
          "type": "uint256"
        }
      ],
      "name": "reservations",
      "outputs": [
        {
          "internalType": "uint256",
          "name": "reservationId",
          "type": "uint256"
        },
        {
          "internalType": "uint256",
          "name": "startDate",
          "type": "uint256"
        },
        {
          "internalType": "uint256",
          "name": "endDate",
          "type": "uint256"
        },
        {
          "internalType": "address",
          "name": "userId",
          "type": "address"
        },
        {
          "internalType": "uint256",
          "name": "parkingSpaceNum",
          "type": "uint256"
        },
        {
          "internalType": "bool",
          "name": "completed",
          "type": "bool"
        }
      ],
      "payable": false,
      "stateMutability": "view",
      "type": "function"
    },
    {
      "constant": true,
      "inputs": [],
      "name": "spotCount",
      "outputs": [
        {
          "internalType": "uint256",
          "name": "",
          "type": "uint256"
        }
      ],
      "payable": false,
      "stateMutability": "view",
      "type": "function"
    },
    {
      "constant": true,
      "inputs": [
        {
          "internalType": "uint256",
          "name": "",
          "type": "uint256"
        }
      ],
      "name": "spots",
      "outputs": [
        {
          "internalType": "uint256",
          "name": "parkingSpotId",
          "type": "uint256"
        },
        {
          "internalType": "uint256",
          "name": "cost",
          "type": "uint256"
        },
        {
          "internalType": "bool",
          "name": "hasEVCharger",
          "type": "bool"
        },
        {
          "internalType": "uint256",
          "name": "distanceToExit",
          "type": "uint256"
        },
        {
          "internalType": "bool",
          "name": "hasRoof",
          "type": "bool"
        }
      ],
      "payable": false,
      "stateMutability": "view",
      "type": "function"
    },
    {
      "constant": false,
      "inputs": [
        {
          "internalType": "address",
          "name": "userId",
          "type": "address"
        }
      ],
      "name": "addUser",
      "outputs": [],
      "payable": false,
      "stateMutability": "nonpayable",
      "type": "function"
    },
    {
      "constant": false,
      "inputs": [
        {
          "internalType": "address",
          "name": "userId",
          "type": "address"
        },
        {
          "internalType": "uint256",
          "name": "points",
          "type": "uint256"
        }
      ],
      "name": "SaveUserPoints",
      "outputs": [],
      "payable": false,
      "stateMutability": "nonpayable",
      "type": "function"
    },
    {
      "constant": false,
      "inputs": [
        {
          "internalType": "uint256",
          "name": "_cost",
          "type": "uint256"
        },
        {
          "internalType": "bool",
          "name": "_hasEVCharger",
          "type": "bool"
        },
        {
          "internalType": "uint256",
          "name": "_distanceToExit",
          "type": "uint256"
        },
        {
          "internalType": "bool",
          "name": "_hasRoof",
          "type": "bool"
        }
      ],
      "name": "addParkingSpot",
      "outputs": [],
      "payable": false,
      "stateMutability": "nonpayable",
      "type": "function"
    },
    {
      "constant": false,
      "inputs": [
        {
          "internalType": "uint256",
          "name": "_startDate",
          "type": "uint256"
        },
        {
          "internalType": "uint256",
          "name": "_endDate",
          "type": "uint256"
        },
        {
          "internalType": "uint256",
          "name": "_parkingSpaceNum",
          "type": "uint256"
        }
      ],
      "name": "createReservation",
      "outputs": [],
      "payable": false,
      "stateMutability": "nonpayable",
      "type": "function"
    },
    {
      "constant": false,
      "inputs": [
        {
          "internalType": "uint256",
          "name": "_id",
          "type": "uint256"
        }
      ],
      "name": "toggleCompleted",
      "outputs": [],
      "payable": false,
      "stateMutability": "nonpayable",
      "type": "function"
    },
    {
      "constant": false,
      "inputs": [
        {
          "internalType": "uint256",
          "name": "_parkingSpaceNum",
          "type": "uint256"
        },
        {
          "internalType": "uint256",
          "name": "_rating",
          "type": "uint256"
        },
        {
          "internalType": "string",
          "name": "_comments",
          "type": "string"
        }
      ],
      "name": "rateSpot",
      "outputs": [],
      "payable": false,
      "stateMutability": "nonpayable",
      "type": "function"
    }
  ],
  "bytecode": "0x6080604052600080556000600155600060025534801561001e57600080fd5b50610ff98061002e6000396000f3fe608060405234801561001057600080fd5b50600436106100cf5760003560e01c8063455f50241161008c578063a97606e811610066578063a97606e814610477578063ce945b6c146104b9578063d9459d0c146104d7578063e84f756e146105a6576100cf565b8063455f5024146102cf5780635d30e84d146102fd57806361eed2a9146103ec576100cf565b8063067cf832146100d457806310c783fe14610169578063145a8bdf146101b9578063248640811461021f5780633357de2f1461023d578063421b2d8b1461028b575b600080fd5b610100600480360360208110156100ea57600080fd5b81019080803590602001909291905050506105c4565b604051808781526020018681526020018581526020018473ffffffffffffffffffffffffffffffffffffffff1673ffffffffffffffffffffffffffffffffffffffff16815260200183815260200182151515158152602001965050505050505060405180910390f35b6101b76004803603608081101561017f57600080fd5b81019080803590602001909291908035151590602001909291908035906020019092919080351515906020019092919050505061062d565b005b6101e5600480360360208110156101cf57600080fd5b81019080803590602001909291905050506106e8565b6040518086815260200185815260200184151515158152602001838152602001821515151581526020019550505050505060405180910390f35b610227610738565b6040518082815260200191505060405180910390f35b6102896004803603604081101561025357600080fd5b81019080803573ffffffffffffffffffffffffffffffffffffffff1690602001909291908035906020019092919050505061073e565b005b6102cd600480360360208110156102a157600080fd5b81019080803573ffffffffffffffffffffffffffffffffffffffff169060200190929190505050610792565b005b6102fb600480360360208110156102e557600080fd5b8101908080359060200190929190505050610854565b005b6103296004803603602081101561031357600080fd5b8101908080359060200190929190505050610a6c565b604051808681526020018573ffffffffffffffffffffffffffffffffffffffff1673ffffffffffffffffffffffffffffffffffffffff16815260200184815260200183815260200180602001828103825283818151815260200191508051906020019080838360005b838110156103ad578082015181840152602081019050610392565b50505050905090810190601f1680156103da5780820380516001836020036101000a031916815260200191505b50965050505050505060405180910390f35b61042e6004803603602081101561040257600080fd5b81019080803573ffffffffffffffffffffffffffffffffffffffff169060200190929190505050610b5a565b604051808373ffffffffffffffffffffffffffffffffffffffff1673ffffffffffffffffffffffffffffffffffffffff1681526020018281526020019250505060405180910390f35b6104b76004803603606081101561048d57600080fd5b81019080803590602001909291908035906020019092919080359060200190929190505050610b9e565b005b6104c1610d85565b6040518082815260200191505060405180910390f35b6105a4600480360360608110156104ed57600080fd5b8101908080359060200190929190803590602001909291908035906020019064010000000081111561051e57600080fd5b82018360208201111561053057600080fd5b8035906020019184600183028401116401000000008311171561055257600080fd5b91908080601f016020809104026020016040519081016040528093929190818152602001838380828437600081840152601f19601f820116905080830192505050505050509192919290505050610d8b565b005b6105ae610ecb565b6040518082815260200191505060405180910390f35b60036020528060005260406000206000915090508060000154908060010154908060020154908060030160009054906101000a900473ffffffffffffffffffffffffffffffffffffffff16908060040154908060050160009054906101000a900460ff16905086565b6002600081548092919060010191905055506040518060a0016040528060025481526020018581526020018415158152602001838152602001821515815250600660006002548152602001908152602001600020600082015181600001556020820151816001015560408201518160020160006101000a81548160ff0219169083151502179055506060820151816003015560808201518160040160006101000a81548160ff02191690831515021790555090505050505050565b60066020528060005260406000206000915090508060000154908060010154908060020160009054906101000a900460ff16908060030154908060040160009054906101000a900460ff16905085565b60015481565b80600560008473ffffffffffffffffffffffffffffffffffffffff1673ffffffffffffffffffffffffffffffffffffffff168152602001908152602001600020600101600082825401925050819055505050565b60405180604001604052808273ffffffffffffffffffffffffffffffffffffffff1681526020016000815250600560008373ffffffffffffffffffffffffffffffffffffffff1673ffffffffffffffffffffffffffffffffffffffff16815260200190815260200160002060008201518160000160006101000a81548173ffffffffffffffffffffffffffffffffffffffff021916908373ffffffffffffffffffffffffffffffffffffffff1602179055506020820151816001015590505050565b61085c610ed1565b600360008381526020019081526020016000206040518060c00160405290816000820154815260200160018201548152602001600282015481526020016003820160009054906101000a900473ffffffffffffffffffffffffffffffffffffffff1673ffffffffffffffffffffffffffffffffffffffff1673ffffffffffffffffffffffffffffffffffffffff168152602001600482015481526020016005820160009054906101000a900460ff16151515158152505090508060a00151158160a0019015159081151581525050806003600084815260200190815260200160002060008201518160000155602082015181600101556040820151816002015560608201518160030160006101000a81548173ffffffffffffffffffffffffffffffffffffffff021916908373ffffffffffffffffffffffffffffffffffffffff1602179055506080820151816004015560a08201518160050160006101000a81548160ff0219169083151502179055509050506002600560003373ffffffffffffffffffffffffffffffffffffffff1673ffffffffffffffffffffffffffffffffffffffff168152602001908152602001600020600101600082825401925050819055507fe7cb065d2a45114e822b3062a6838c46dbc080502507d0d934ae50863361f4d4828260a0015160405180838152602001821515151581526020019250505060405180910390a15050565b60046020528060005260406000206000915090508060000154908060010160009054906101000a900473ffffffffffffffffffffffffffffffffffffffff1690806002015490806003015490806004018054600181600116156101000203166002900480601f016020809104026020016040519081016040528092919081815260200182805460018160011615610100020316600290048015610b505780601f10610b2557610100808354040283529160200191610b50565b820191906000526020600020905b815481529060010190602001808311610b3357829003601f168201915b5050505050905085565b60056020528060005260406000206000915090508060000160009054906101000a900473ffffffffffffffffffffffffffffffffffffffff16908060010154905082565b60008081548092919060010191905055506040518060c0016040528060005481526020018481526020018381526020013373ffffffffffffffffffffffffffffffffffffffff16815260200182815260200160001515815250600360008054815260200190815260200160002060008201518160000155602082015181600101556040820151816002015560608201518160030160006101000a81548173ffffffffffffffffffffffffffffffffffffffff021916908373ffffffffffffffffffffffffffffffffffffffff1602179055506080820151816004015560a08201518160050160006101000a81548160ff021916908315150217905550905050600a600560003373ffffffffffffffffffffffffffffffffffffffff1673ffffffffffffffffffffffffffffffffffffffff168152602001908152602001600020600101600082825401925050819055507fcb57bae2e174fa6b676ead5c16482a3d480328660a7db893df4b87fa39927eaa600054848433856000604051808781526020018681526020018581526020018473ffffffffffffffffffffffffffffffffffffffff1673ffffffffffffffffffffffffffffffffffffffff16815260200183815260200182151515158152602001965050505050505060405180910390a1505050565b60025481565b6001600081548092919060010191905055506040518060a0016040528060015481526020013373ffffffffffffffffffffffffffffffffffffffff168152602001848152602001838152602001828152506004600060015481526020019081526020016000206000820151816000015560208201518160010160006101000a81548173ffffffffffffffffffffffffffffffffffffffff021916908373ffffffffffffffffffffffffffffffffffffffff16021790555060408201518160020155606082015181600301556080820151816004019080519060200190610e72929190610f1f565b5090505060058060003373ffffffffffffffffffffffffffffffffffffffff1673ffffffffffffffffffffffffffffffffffffffff16815260200190815260200160002060010160008282540192505081905550505050565b60005481565b6040518060c00160405280600081526020016000815260200160008152602001600073ffffffffffffffffffffffffffffffffffffffff168152602001600081526020016000151581525090565b828054600181600116156101000203166002900490600052602060002090601f016020900481019282601f10610f6057805160ff1916838001178555610f8e565b82800160010185558215610f8e579182015b82811115610f8d578251825591602001919060010190610f72565b5b509050610f9b9190610f9f565b5090565b610fc191905b80821115610fbd576000816000905550600101610fa5565b5090565b9056fea265627a7a723158208c97f1adf0fd490248463d452caf220eed66a8c8b8891bde23408a505edb7c0c64736f6c63430005100032",
  "source": "// SPDX-License-Identifier: MIT \npragma solidity ^0.5.0;\n\ncontract ParkingSystem {\n    uint public reservationCount = 0; //unique for each parking reservations;\n    uint public ratingCount = 0;\n    uint public spotCount = 0;\n\n    struct Reservation{\n        uint reservationId;\n\n        uint startDate;\n        uint endDate;\n        address userId;\n\n        uint parkingSpaceNum;\n\n        bool completed;\n    }\n\n    struct Rating{\n        uint ratingId;\n        address userId;\n        \n        uint parkingSpaceNum;\n\n        uint rating;\n        string comments;\n    }\n\n    struct Client{\n        address userId;\n        uint points;\n    }\n\n    struct ParkingSpot{\n        uint parkingSpotId;\n        uint cost;\n        bool hasEVCharger;\n        uint distanceToExit;\n        bool hasRoof;\n    }\n\n    mapping(uint => Reservation) public reservations;\n    mapping(uint => Rating) public ratings;\n    mapping(address => Client) public clients;\n    mapping(uint => ParkingSpot) public spots;\n\n    //store new user info\n    function addUser(address userId) public {\n        clients[userId] = Client(userId, 0);\n    }\n\n    //increment user points\n    function SaveUserPoints(address userId, uint points) public {\n        clients[userId].points += points;\n    }\n\n    //add new parking spots into the system\n    function addParkingSpot(uint _cost, bool _hasEVCharger, uint _distanceToExit, bool _hasRoof) public {\n\n        spotCount++;\n        spots[spotCount] = ParkingSpot(spotCount, _cost, _hasEVCharger, _distanceToExit, _hasRoof);\n    }\n\n    //create new reservation and increment user points\n    function createReservation(\n        uint _startDate,\n        uint _endDate,\n        //uint _parkingLevelNum,\n        uint _parkingSpaceNum) public {\n        reservationCount++;\n        reservations[reservationCount] = Reservation(reservationCount, _startDate, _endDate, msg.sender, _parkingSpaceNum, false);\n\n        //increment user points\n        clients[msg.sender].points += 10;\n\n        emit ReservationCreated(reservationCount, _startDate, _endDate, msg.sender, _parkingSpaceNum, false);\n    }\n\n    //print reservation to user when created\n    event ReservationCreated(\n        uint reservationId,\n\n        uint startDate,\n        uint endDate,\n        address userId,\n\n        uint parkingSpaceNum,\n\n        bool completed);\n\n    function toggleCompleted(uint _id) public {\n        Reservation memory _reservation = reservations[_id];\n        _reservation.completed = !_reservation.completed;\n\n        reservations[_id] = _reservation;\n        \n        //increment user points\n        clients[msg.sender].points += 2;\n\n        emit ReservationCompleted(_id, _reservation.completed);\n    }\n\n    //print details to user when reservation marked as completed\n    event ReservationCompleted(uint reservationId, bool completed);\n\n    function rateSpot(uint _parkingSpaceNum, uint _rating, string memory _comments) public {\n        ratingCount++;\n        ratings[ratingCount] = Rating(ratingCount, msg.sender, _parkingSpaceNum, _rating, _comments);\n\n        //increment user points\n        clients[msg.sender].points += 5;\n    }\n}",
  "sourcePath": "/home/deepesh/Documents/GitHub/Blockchain-Parking-System/contracts/ParkingSystem.sol",
  "compiler": {
    "name": "solc",
    "version": "0.5.16+commit.9c3226ce.Emscripten.clang"
  },
  "schemaVersion": "3.4.16",
  "updatedAt": "2024-08-09T09:01:59.006Z",
  "networkType": "ethereum",
  "devdoc": {
    "methods": {}
  },
  "userdoc": {
    "methods": {}
  }
}